{
  "contractName": "Faucet",
  "abi": [
    {
      "inputs": [
        {
          "internalType": "address",
          "name": "",
          "type": "address"
        }
      ],
      "name": "funders",
      "outputs": [
        {
          "internalType": "bool",
          "name": "",
          "type": "bool"
        }
      ],
      "stateMutability": "view",
      "type": "function",
      "constant": true
    },
    {
      "inputs": [
        {
          "internalType": "uint256",
          "name": "",
          "type": "uint256"
        }
      ],
      "name": "lutFunders",
      "outputs": [
        {
          "internalType": "address",
          "name": "",
          "type": "address"
        }
      ],
      "stateMutability": "view",
      "type": "function",
      "constant": true
    },
    {
      "inputs": [],
      "name": "num",
      "outputs": [
        {
          "internalType": "uint256",
          "name": "",
          "type": "uint256"
        }
      ],
      "stateMutability": "view",
      "type": "function",
      "constant": true
    },
    {
      "inputs": [],
      "name": "numOfFunders",
      "outputs": [
        {
          "internalType": "uint8",
          "name": "",
          "type": "uint8"
        }
      ],
      "stateMutability": "view",
      "type": "function",
      "constant": true
    },
    {
      "inputs": [],
      "name": "owner",
      "outputs": [
        {
          "internalType": "address",
          "name": "",
          "type": "address"
        }
      ],
      "stateMutability": "view",
      "type": "function",
      "constant": true
    },
    {
      "inputs": [],
      "name": "test",
      "outputs": [
        {
          "internalType": "uint256",
          "name": "",
          "type": "uint256"
        }
      ],
      "stateMutability": "pure",
      "type": "function",
      "constant": true
    },
    {
      "inputs": [
        {
          "internalType": "address",
          "name": "newOwner",
          "type": "address"
        }
      ],
      "name": "transferOwnership",
      "outputs": [],
      "stateMutability": "nonpayable",
      "type": "function"
    },
    {
      "stateMutability": "payable",
      "type": "receive",
      "payable": true
    },
    {
      "inputs": [],
      "name": "emitLog",
      "outputs": [
        {
          "internalType": "bytes32",
          "name": "",
          "type": "bytes32"
        }
      ],
      "stateMutability": "pure",
      "type": "function",
      "constant": true
    },
    {
      "inputs": [],
      "name": "addFunds",
      "outputs": [],
      "stateMutability": "payable",
      "type": "function",
      "payable": true
    },
    {
      "inputs": [
        {
          "internalType": "uint256",
          "name": "withdrawAmount",
          "type": "uint256"
        }
      ],
      "name": "withdraw",
      "outputs": [],
      "stateMutability": "nonpayable",
      "type": "function"
    },
    {
      "inputs": [],
      "name": "getAllFunders",
      "outputs": [
        {
          "internalType": "address[]",
          "name": "",
          "type": "address[]"
        }
      ],
      "stateMutability": "view",
      "type": "function",
      "constant": true
    },
    {
      "inputs": [
        {
          "internalType": "uint8",
          "name": "index",
          "type": "uint8"
        }
      ],
      "name": "getFunderAtIndex",
      "outputs": [
        {
          "internalType": "address",
          "name": "",
          "type": "address"
        }
      ],
      "stateMutability": "view",
      "type": "function",
      "constant": true
    }
  ],
  "bytecode": "0x608060405234801561001057600080fd5b50336000806101000a81548173ffffffffffffffffffffffffffffffffffffffff021916908373ffffffffffffffffffffffffffffffffffffffff1602179055506103e8600181905550610d1c806100696000396000f3fe6080604052600436106100ab5760003560e01c80638da5cb5b116100645780638da5cb5b146101ed578063a26759cb14610218578063af7f2c9b14610222578063f2fde38b1461024d578063f42c13bf14610276578063f8a8fd6d146102a1576100b2565b8063031b3677146100b75780630a93cf33146100f45780631f8947ea146101315780632e1a7d4d1461016e5780634e70b1dc146101975780636fbbb55d146101c2576100b2565b366100b257005b600080fd5b3480156100c357600080fd5b506100de60048036038101906100d991906107f5565b6102cc565b6040516100eb919061083d565b60405180910390f35b34801561010057600080fd5b5061011b60048036038101906101169190610891565b6102ec565b60405161012891906108cd565b60405180910390f35b34801561013d57600080fd5b506101586004803603810190610153919061091e565b61032c565b60405161016591906108cd565b60405180910390f35b34801561017a57600080fd5b506101956004803603810190610190919061091e565b61035f565b005b3480156101a357600080fd5b506101ac6103f6565b6040516101b9919061095a565b60405180910390f35b3480156101ce57600080fd5b506101d76103fc565b6040516101e49190610a33565b60405180910390f35b3480156101f957600080fd5b50610202610516565b60405161020f91906108cd565b60405180910390f35b61022061053a565b005b34801561022e57600080fd5b5061023761067d565b6040516102449190610a64565b60405180910390f35b34801561025957600080fd5b50610274600480360381019061026f91906107f5565b610690565b005b34801561028257600080fd5b5061028b610761565b6040516102989190610a98565b60405180910390f35b3480156102ad57600080fd5b506102b6610789565b6040516102c3919061095a565b60405180910390f35b60036020528060005260406000206000915054906101000a900460ff1681565b6000600460008360ff16815260200190815260200160002060009054906101000a900473ffffffffffffffffffffffffffffffffffffffff169050919050565b60046020528060005260406000206000915054906101000a900473ffffffffffffffffffffffffffffffffffffffff1681565b8067016345785d8a00008111156103ab576040517f08c379a00000000000000000000000000000000000000000000000000000000081526004016103a290610b36565b60405180910390fd5b3373ffffffffffffffffffffffffffffffffffffffff166108fc839081150290604051600060405180830381858888f193505050501580156103f1573d6000803e3d6000fd5b505050565b60015481565b60606000600260009054906101000a900460ff1660ff1667ffffffffffffffff81111561042c5761042b610b56565b5b60405190808252806020026020018201604052801561045a5781602001602082028036833780820191505090505b50905060005b600260009054906101000a900460ff1660ff1681101561050e576004600082815260200190815260200160002060009054906101000a900473ffffffffffffffffffffffffffffffffffffffff168282815181106104c1576104c0610b85565b5b602002602001019073ffffffffffffffffffffffffffffffffffffffff16908173ffffffffffffffffffffffffffffffffffffffff1681525050808061050690610be3565b915050610460565b508091505090565b60008054906101000a900473ffffffffffffffffffffffffffffffffffffffff1681565b6000339050600360008273ffffffffffffffffffffffffffffffffffffffff1673ffffffffffffffffffffffffffffffffffffffff16815260200190815260200160002060009054906101000a900460ff1661067a5760006002600081819054906101000a900460ff16809291906105b190610c2b565b91906101000a81548160ff021916908360ff160217905550905081600460008360ff16815260200190815260200160002060006101000a81548173ffffffffffffffffffffffffffffffffffffffff021916908373ffffffffffffffffffffffffffffffffffffffff1602179055506001600360008473ffffffffffffffffffffffffffffffffffffffff1673ffffffffffffffffffffffffffffffffffffffff16815260200190815260200160002060006101000a81548160ff021916908315150217905550505b50565b600260009054906101000a900460ff1681565b60008054906101000a900473ffffffffffffffffffffffffffffffffffffffff1673ffffffffffffffffffffffffffffffffffffffff163373ffffffffffffffffffffffffffffffffffffffff161461071e576040517f08c379a000000000000000000000000000000000000000000000000000000000815260040161071590610cc6565b60405180910390fd5b806000806101000a81548173ffffffffffffffffffffffffffffffffffffffff021916908373ffffffffffffffffffffffffffffffffffffffff16021790555050565b60007f48656c6c6f20776f726c64000000000000000000000000000000000000000000905090565b60006064905090565b600080fd5b600073ffffffffffffffffffffffffffffffffffffffff82169050919050565b60006107c282610797565b9050919050565b6107d2816107b7565b81146107dd57600080fd5b50565b6000813590506107ef816107c9565b92915050565b60006020828403121561080b5761080a610792565b5b6000610819848285016107e0565b91505092915050565b60008115159050919050565b61083781610822565b82525050565b6000602082019050610852600083018461082e565b92915050565b600060ff82169050919050565b61086e81610858565b811461087957600080fd5b50565b60008135905061088b81610865565b92915050565b6000602082840312156108a7576108a6610792565b5b60006108b58482850161087c565b91505092915050565b6108c7816107b7565b82525050565b60006020820190506108e260008301846108be565b92915050565b6000819050919050565b6108fb816108e8565b811461090657600080fd5b50565b600081359050610918816108f2565b92915050565b60006020828403121561093457610933610792565b5b600061094284828501610909565b91505092915050565b610954816108e8565b82525050565b600060208201905061096f600083018461094b565b92915050565b600081519050919050565b600082825260208201905092915050565b6000819050602082019050919050565b6109aa816107b7565b82525050565b60006109bc83836109a1565b60208301905092915050565b6000602082019050919050565b60006109e082610975565b6109ea8185610980565b93506109f583610991565b8060005b83811015610a26578151610a0d88826109b0565b9750610a18836109c8565b9250506001810190506109f9565b5085935050505092915050565b60006020820190508181036000830152610a4d81846109d5565b905092915050565b610a5e81610858565b82525050565b6000602082019050610a796000830184610a55565b92915050565b6000819050919050565b610a9281610a7f565b82525050565b6000602082019050610aad6000830184610a89565b92915050565b600082825260208201905092915050565b7f43616e6e6f74207769746864726177206d6f7265207468616e20302e3120657460008201527f6865720000000000000000000000000000000000000000000000000000000000602082015250565b6000610b20602383610ab3565b9150610b2b82610ac4565b604082019050919050565b60006020820190508181036000830152610b4f81610b13565b9050919050565b7f4e487b7100000000000000000000000000000000000000000000000000000000600052604160045260246000fd5b7f4e487b7100000000000000000000000000000000000000000000000000000000600052603260045260246000fd5b7f4e487b7100000000000000000000000000000000000000000000000000000000600052601160045260246000fd5b6000610bee826108e8565b91507fffffffffffffffffffffffffffffffffffffffffffffffffffffffffffffffff8203610c2057610c1f610bb4565b5b600182019050919050565b6000610c3682610858565b915060ff8203610c4957610c48610bb4565b5b600182019050919050565b7f4f6e6c79206f776e65722063616e2063616c6c20746869732066756e6374696f60008201527f6e00000000000000000000000000000000000000000000000000000000000000602082015250565b6000610cb0602183610ab3565b9150610cbb82610c54565b604082019050919050565b60006020820190508181036000830152610cdf81610ca3565b905091905056fea2646970667358221220ad290ad9eed5f3b7e623cc92d45ce4b1bd3a3fc464282fb5b737aa86e8abb47964736f6c63430008110033",
  "immutableReferences": {},
  "source": "// SPDX-License-Identifier: MIT\r\npragma solidity >=0.7.0 <0.9.0;\r\n\r\nimport \"./Owned.sol\";\r\nimport \"./Logger.sol\";\r\nimport \"./IFaucet.sol\";\r\n\r\ncontract Faucet is Owned, Logger, IFaucet {\r\n    // private -> can be accessible only within the smart contract\r\n    // internal -> can be accessible within smart contract and also derived smart contract\r\n    uint8 public numOfFunders;\r\n    mapping(address => bool) public funders;\r\n    mapping(uint256 => address) public lutFunders;\r\n\r\n    modifier limitWithdraw(uint256 withdrawAmount) {\r\n        require(\r\n            withdrawAmount <= 100000000000000000,\r\n            \"Cannot withdraw more than 0.1 ether\"\r\n        );\r\n        _;\r\n    }\r\n\r\n    function emitLog() external pure override returns (bytes32) {\r\n        return \"Hello world\";\r\n    }\r\n\r\n    // this is a special function\r\n    // it's called when you make a tx that doesn't specify function name to call\r\n    // external function are part of the contract interface\r\n    // which mean they can be called via contracts and other txs\r\n    receive() external payable {}\r\n\r\n    function addFunds() external payable override {\r\n        address funder = msg.sender;\r\n        if (!funders[funder]) {\r\n            uint8 index = numOfFunders++;\r\n            lutFunders[index] = funder;\r\n            funders[funder] = true;\r\n        }\r\n    }\r\n\r\n    function withdraw(uint256 withdrawAmount)\r\n        external\r\n        override\r\n        limitWithdraw(withdrawAmount)\r\n    {\r\n        payable(msg.sender).transfer(withdrawAmount);\r\n    }\r\n\r\n    function getAllFunders() external view returns (address[] memory) {\r\n        address[] memory _funders = new address[](numOfFunders);\r\n\r\n        for (uint256 i = 0; i < numOfFunders; i++) {\r\n            _funders[i] = lutFunders[i];\r\n        }\r\n\r\n        return _funders;\r\n    }\r\n\r\n    function getFunderAtIndex(uint8 index) external view returns (address) {\r\n        return lutFunders[index];\r\n    }\r\n\r\n    // pure, view - read-only, no gas fee\r\n    // view - it indicates that the function will not alter the storage state in any way\r\n    // pure - it is even more strict, indicating that it won't even read the storage state\r\n\r\n    // transactions (can generate state changes) and require gas fee\r\n    // read-only call, no gas fee\r\n    // to talk to the node on the network you can make JSON-RPC http calls\r\n}\r\n\r\n// const instance = await Faucet.deployed()\r\n// instance.addFunds({from:accounts[0], value:\"2000000000000000000\"})\r\n// instance.getFunderAtIndex(0)\r\n// instance.withdraw(\"100000000000000000\", {from: accounts[1]})\r\n",
  "sourcePath": "C:\\Users\\PROSENJIT\\Desktop\\blockchain\\faucet-app\\contracts\\FaucetContract.sol",
  "compiler": {
    "name": "solc",
    "version": "0.8.17+commit.8df45f5f.Emscripten.clang"
  },
  "schemaVersion": "3.4.9",
  "updatedAt": "2022-09-23T17:57:47.857Z",
  "networkType": "ethereum",
  "devdoc": {
    "kind": "dev",
    "methods": {},
    "version": 1
  },
  "userdoc": {
    "kind": "user",
    "methods": {},
    "version": 1
  }
}